:100000000C9434000C9468020C9468020C946802FE
:100010000C9468020C9468020C945A020C946802C6
:100020000C9468020C9468020C9468020C946802A8
:100030000C9468020C9468020C9468020C94680298
:100040000C94E7200C9468020C9446210C946802EE
:100050000C9468020C9468020C9468020C94680278
:100060000C9468020C9468021124A0E0B3E0ADBFC8
:10007000BEBF0F92A0E0B3E0CDEAD4E0E0EEF2E73D
:10008000AC17BD0719F005900D92FACF0E94182702
:100090000E9422270E946A27AA1BBB1B51E1881FCE
:1000A000991F5A9541F0AA1FBB1FA617B707B8F3AF
:1000B000A61BB70BF4CF80959095682F792F8A2FC8
:1000C0009B2F08954F925F926F927F928F929F9293
:1000D000AF92BF92CF92DF92EF92FF920F931F9356
:1000E00059014C01E0E0F0E081E0A114B1044E07B9
:1000F0005F0709F0812D8170803009F045C04115FE
:10010000510509F044C0C501969587958A299B2918
:100110009C013695279536952795282B392BD901A3
:10012000B295A295AF70AB27BF70AB27A22BB32BB4
:10013000CD01892F99278A2B9B2B809590959C0127
:100140003695279525753575821B930B9C01237376
:100150003373969587959695879583739373820FDE
:10016000931F9C01329522952F7023273F702327E0
:10017000280F391F2F703F70D901AB2FBB27A20F5B
:10018000B31FB070509642C0A0E2B0E03FC0CA01B9
:1001900096958795842B952B9C01369527953695BA
:1001A0002795282B392BD901B295A295AF70AB2793
:1001B000BF70AB27A22BB32BCD01892F99278A2B98
:1001C0009B2B809590959C013695279525753575C7
:1001D000821B930B9C012373337396958795969599
:1001E000879583739373820F931F9C013295229599
:1001F0002F7023273F702327280F391F2F703F7040
:10020000D901AB2FBB27A20FB31FB07081E06115DE
:1002100071058E069F0609F0812D8170803009F0EE
:1002200045C08114910409F044C0CB01969587958F
:10023000862B972B9C013695279536952795282B4D
:10024000392BF901F295E295EF70EF27FF70EF2758
:10025000E22BF32BCF01892F99278E2B9F2B809593
:1002600090959C013695279525753575821B930BC6
:100270009C01237333739695879596958795837321
:100280009373820F931F9C01329522952F70232721
:100290003F702327280F391F2F703F70C901892F06
:1002A0009927820F931F9070409642C080E290E0A1
:1002B0003FC0C40196958795882999299C01369558
:1002C000279536952795282B392BF901F295E2953C
:1002D000EF70EF27FF70EF27E22BF32BCF01892F71
:1002E00099278E2B9F2B809590959C01369527956D
:1002F00025753575821B930B9C012373337396957B
:1003000087959695879583739373820F931F9C01AE
:10031000329522952F7023273F702327280F391FEE
:100320002F703F70C901892F9927820F931F9070FA
:100330009D01281B390B2032310520F020E030E0F0
:10034000D9017FC02F31310519F49B01D40179C047
:10035000082FF9013196E0307B01640189F08A2F82
:100360008095902F890F7B016401839591E0803007
:1003700009F0912DD694C794F794E7949130A9F79A
:100380002F3169F0A01BAF51A39581E0A03009F097
:10039000812D660F771F881C991C8130A9F720E0FA
:1003A00030E0D901412C512CE115F10509F441C08F
:1003B000CC0CDD1C8701012F02950F7011270695CB
:1003C000069506950C291D296801C094D094EE0C61
:1003D000FF1CC401892F82958F7099278695869579
:1003E00086958E299F297C01E094F094EA0CFB1CF1
:1003F000C41ED51EFD2CFF0CEE08FE2C37016A2012
:100400007B20E422F522861997090E091F09DD0CCD
:10041000612C661C712C660F771F881C991C8A2A18
:100420009B2A622B732B31977C0168019301D201C7
:10043000BBCF660F771F881C991CA829B929262BCA
:10044000372BB901CD011F910F91FF90EF90DF90F5
:10045000CF90BF90AF909F908F907F906F905F9064
:100460004F900895DF93CF931F930F93FF92EF92D6
:10047000DF92CF92BF92AF929F928F927F926F92B4
:100480005F924F923F922F928DB79EB70E940D2799
:100490002F903F904F905F906F907F908F909F90A4
:1004A000AF90BF90CF90DF90EF90FF900F911F9192
:1004B000CF91DF910F930027A89504BF00916000B2
:1004C0000861009360000027009360000F91189569
:1004D0008895FECFFA01DC01E115F10519F06D9365
:1004E0003197FACF0895FA01DC01E115F10541F0E9
:1004F000AD01DB012D91BD01DA012D933197F5CFCF
:1005000008954F925F926F927F928F929F92AF92D7
:10051000BF92CF92DF92EF92FF920F931F93E92F3A
:10052000EE0FA12DAA1FB12D812C912CE92FEE0FDA
:100530006608762C262537254625572566257725F6
:1005400086259725E0E0F0E02A0F3B1F481D591D46
:100550006E1F7F1F8E1F9F1FA12FAA0FA12DAA1FE5
:10056000B12D812C912C512E550C4408542CA424CF
:10057000B524C424D524E424F52404251525AA0E85
:10058000BB1EC81CD91CEE1EFF1E0E1F1F1F4F01D5
:100590000E94EB0246245724242535254425552561
:1005A000642575258425952524193509440955099F
:1005B00064097509840995091F910F91FF90EF90C7
:1005C000DF90CF90BF90AF909F908F907F906F9073
:1005D0005F904F9008952F923F924F925F926F924B
:1005E0007F928F929F92AF92BF92CF92DF92EF92C3
:1005F000FF920F931F93CF93DF93CDB7DEB764972E
:100600000FB6F894DEBF0FBECDBF2401F801D601AE
:100610001B018A01490140E050E021E0211431042E
:100620008407950709F4212D2170203009F462C058
:1006300021E0A114B104A407B50709F4212D21700C
:1006400020303C01BA86A986FE83ED83F886EF82CE
:1006500021E009F46AC0E114F104E407F50709F4A4
:10066000212D2170203009F4D0C08115910509F0A9
:100670002EC1C10196958795822993299C013695B3
:10068000279536952795282B392BA9015295429508
:100690004F7045275F704527422B532BCA01892F86
:1006A0009927842B952B809590959C0136952795BD
:1006B00025753575821B930B9C01237333739695B7
:1006C00087959695879583739373820F931F9C01EB
:1006D000329522952F7023273F702327280F391F2B
:1006E0002F703F70C901892F9927820F931F907037
:1006F00040962CC181E0E114F104E407F50709F408
:10070000812D8170803009F4BCC0A0E0B0E04114BC
:10071000510409F4B7C1F201B783A683B583A4835A
:100720009182808213830283ADC1E114F104E40756
:10073000F50709F0212D2170203009F0BFC121E01B
:10074000811491040407150709F4212D5A01217021
:10075000203009F44EC2970121503040CF01804033
:100760009040B701E823F9236223732341E0611528
:100770007105EA05FB0509F4412D4170403009F08F
:100780005FC24114510471F0F201918280822221F2
:10079000332135832483138302839301822393239C
:1007A000978386834F8158854115510509F00EC402
:1007B0004D815E81CA010197409550954823592388
:1007C000CA019695879585759575481B590BCA0181
:1007D0008373937356954795569547954373537313
:1007E000480F591F9A01329522952F7023273F7089
:1007F0002327240F351F2F703F70C901892F992798
:10080000820F931F907040960AC49501215030408A
:10081000CD01804090407A01B501FD01E823F92324
:100820006223732341E061157105B701E607F707FD
:1008300009F4412D41704030730109F040C1411469
:10084000510471F0F20177836683758364832821F4
:100850003921318320838023912393838283730101
:1008600081E029853A8521303105A607B70709F0CF
:10087000812D8170803009F429C2D4013801B10181
:10088000BEC66A01B401C8019501AD017D010E9497
:100890002922D9013A014114510409F4CDC1F201D0
:1008A000D782C682D582C4826F01BD01C301950182
:1008B000A7017D010E94F321D701861A970A080B30
:1008C000190BF6011383028391828082B5C1AC01BA
:1008D00056954795482B592B9A013695279536956D
:1008E0002795242B352BA901529542954F7045270A
:1008F0005F704527422B532BCA01892F9927842BE0
:10090000952B809590959C01369527952575357585
:10091000821B930B9C012373337396958795969551
:10092000879583739373820F931F9C013295229551
:100930002F7023273F702327280F391F2F703F70F8
:10094000C901892F9927820F931F90705C01BC8386
:10095000AB83E115F10509F041C0C7019695879574
:100960008E299F299C013695279536952795282B0A
:10097000392BA901529542954F7045275F70452745
:10098000422B532BCA01892F9927842B952B8095B5
:1009900090959C013695279525753575821B930B8F
:1009A000FC01E373F373969587959695879583730A
:1009B00093738E0F9F1F9C01329522952F702327D2
:1009C0003F702327280F391F2F703F70D901AB2F9D
:1009D000BB27A20FB31FB07050963FC0CF019695B2
:1009E00087958E2B9F2B9C013695279536952795BD
:1009F000282B392BA901529542954F7045275F70DE
:100A00004527422B532BCA01892F9927842B952BDD
:100A1000809590959C013695279525753575821B97
:100A2000930BFC01E373F3739695879596958795E1
:100A3000837393738E0F9F1F9C01329522952F70A5
:100A400023273F702327280F391F2F703F70D901AC
:100A5000AB2FBB27A20FB31FB070CD019501821B36
:100A6000930B8032910590F04114510449F0F2014A
:100A70009182808213830283358224827782668208
:100A8000A0E0B0E03D01BD017D01B9C55A824982B7
:100A9000FC013196E0326F01F10509F055C080E0AC
:100AA00090E020E230E03E872D879C8A8B8A780197
:100AB000DC019C019A8B898B2C011AC2A0C5E11420
:100AC000F10409F032C1C1019695879582299329D5
:100AD0009C013695279536952795282B392BA9010A
:100AE000529542954F7045275F704527422B532BF7
:100AF000CA01892F9927842B952B809590959C016D
:100B00003695279525753575821B930B9C012373AC
:100B10003373969587959695879583739373820F14
:100B2000931F9C01329522952F7023273F70232716
:100B3000280F391F2F703F70C901892F9927820F05
:100B4000931F9070409630C14FE150E0481B590B05
:100B5000403094017801F30189F08A2F2A2D821BFD
:100B60008F5194017801839591E0803009F0912DA7
:100B7000220F331FEE1CFF1C9130A9F73C8B2B8BEF
:100B8000C601803091012F0189F08A2F80952A2D8E
:100B9000820F91012F01839591E0803009F0912D12
:100BA00056944794379527959130A9F7403079F0BE
:100BB0008A2F4A2D841B8F51839591E0803009F054
:100BC000912D220C331CEE1FFF1F9130A9F7C60197
:100BD000803009F466C3A095AA0DA39581E0A030EA
:100BE00009F0812D16950795979487948130A9F780
:100BF00058C3B1019701AF016C018F010E942922F6
:100C0000D9013A0141145104B9F0F201B382A28230
:100C1000B182A0825F01BD01C3019701A8018D01CE
:100C20000E94F321D801261A370AC80AD90AF50109
:100C3000D782C6823582248260E070E07B01DFC407
:100C400093012115310509F0F4C1C10196958795ED
:100C5000822993299C013695279536952795282B2F
:100C6000392BA901529542954F7045275F70452752
:100C7000422B532BCA01892F9927842B952B8095C2
:100C800090959C013695279525753575821B930B9C
:100C90009C012373337396958795969587958373F7
:100CA0009373820F931F9C01329522952F702327F7
:100CB0003F702327280F391F2F703F70C901892FDC
:100CC0009927820F931F90704096F2C1211531052C
:100CD00009F0D6C3CD010197A095B095A823B923FB
:100CE000CD019695879585759575A81BB90BCD0196
:100CF00083739373B695A795B695A795A373B373AE
:100D0000A80FB91FCD01929582958F7089279F708A
:100D100089278A0F9B1F8F709F70FC01EF2FFF2781
:100D2000E80FF91FF0707096D4C3C70196958795A8
:100D30008E299F299C013695279536952795282B36
:100D4000392BA901529542954F7045275F70452771
:100D5000422B532BCA01892F9927842B952B8095E1
:100D600090959C013695279525753575821B930BBB
:100D70009C01237333739695879596958795837316
:100D80009373820F931F9C01329522952F70232716
:100D90003F702327280F391F2F703F70C901892FFB
:100DA0009927820F931F90705C0129853A8568010D
:100DB000A115B10509F041C0C90196958795822B0F
:100DC000932B9C013695279536952795282B392B03
:100DD000A901529542954F7045275F704527422BD8
:100DE000532BCA01892F9927842B952B8095909599
:100DF0009C013695279525753575821B930BFC0153
:100E0000E373F3739695879596958795837393739C
:100E10008E0F9F1F9C01329522952F7023273F70C4
:100E20002327280F391F2F703F70F901EF2FFF275D
:100E3000E20FF31FF07070963FC0CD019695879535
:100E40008A2B9B2B9C013695279536952795282B29
:100E5000392BA901529542954F7045275F70452760
:100E6000422B532BCA01892F9927842B952B8095D0
:100E700090959C013695279525753575821B930BAA
:100E8000FC01E373F3739695879596958795837325
:100E900093738E0F9F1F9C01329522952F702327ED
:100EA0003F702327280F391F2F703F70F901EF2F54
:100EB000FF27E20FF31FF0708E2F988B8F87C501ED
:100EC000E81BF90BB19660E270E0E032F1055A825E
:100ED0004982BC83AB8371F480E090E09C8A8B8A6A
:100EE0007601DC019C019A8B898B2C017E876D87B2
:100EF000F301E2C1CF0180329E878D87910508F012
:100F000008C36E1B7F0B603094017601F30191F0F2
:100F10008F8598892A2D821B83959401760183956C
:100F200091E0803009F0912D220F331FEE1CFF1C41
:100F30009130A9F73C8B2B8B8D859E85803091015C
:100F40002F0191F08A2D2F853889821B81529101C2
:100F50002F01839591E0803009F0912D56944794AC
:100F6000379527959130A9F7603081F08F85988962
:100F70006A2D861B8395839591E0803009F0912D31
:100F8000220C331CEE1FFF1F9130A9F78D859E8523
:100F9000803091F04A2D8F859889481B4152642FEB
:100FA000639581E0462F603009F0812DD694C79477
:100FB00097948794813099F728283928EC29FD29BE
:100FC00080E090E09A8B898BDC0176C1CA010197A1
:100FD0004095509548235923CA0196958795857564
:100FE0009575481B590BCA018373937356954795A2
:100FF0005695479543735373480F591F9A0132957D
:1010000022952F7023273F702327240F351F2F7021
:101010003F70C901892F9927820F931F9070D101CA
:10102000803009F409CE76946794B795A7958A9590
:10103000F7CFC90196958795822B932B9C01369506
:10104000279536952795282B392BA901529542953E
:101050004F7045275F704527422B532BCA01892FBC
:101060009927842B952B809590959C0136952795F3
:1010700025753575821B930B9C01237333739695ED
:1010800087959695879583739373820F931F9C0121
:10109000329522952F7023273F702327280F391F61
:1010A0002F703F70C901892F9927820F931F90706D
:1010B0007C012D813E814F815885BC83AB832115F6
:1010C000310509F041C0CA0196958795842B952B6F
:1010D0009C013695279536952795282B392BA90104
:1010E000529542954F7045275F704527422B532BF1
:1010F000CA01892F9927842B952B809590959C0167
:101100003695279525753575821B930BFC01E37386
:10111000F3739695879596958795837393738E0F42
:101120009F1F9C01329522952F7023273F70232704
:10113000280F391F2F703F70D901AB2FBB27A20F8B
:10114000B31FB07050963FC0C90196958795822B0A
:10115000932B9C013695279536952795282B392B6F
:10116000A901529542954F7045275F704527422B44
:10117000532BCA01892F9927842B952B8095909505
:101180009C013695279525753575821B930BFC01BF
:10119000E373F37396958795969587958373937309
:1011A0008E0F9F1F9C01329522952F7023273F7031
:1011B0002327280F391F2F703F70D901AB2FBB2772
:1011C000A20FB31FB070CD019701821B930B8F311B
:1011D0009105F30178F04114510409F451CCCF0189
:1011E000F201918280821383028335822482978365
:1011F000868346CC5A8249824FE150E0481B590B06
:1012000001966C0140309401B80189F08A2F2E2D8F
:10121000821B8F519401B801839591E0803009F0D1
:10122000912D220F331F661F771F9130A9F73C8B3A
:101230002B8BC601803091012F0189F08A2F809578
:101240002E2D820F91012F01839591E0803009F0BE
:10125000912D56944794379527959130A9F74030B2
:1012600079F08A2F4E2D841B8F51839591E0803029
:1012700009F0912D220C331CEE1FFF1F9130A9F7AE
:10128000C601803069F0A095AE0DA39581E0A03035
:1012900009F0812D16950795979487948130A9F7C9
:1012A0007B0128283928E02BF12B80E090E09A8BF5
:1012B000898BDC01DE86CD86B88BAF8780E090E03D
:1012C0003C01AD85BE859E878D87A115B10509F4CA
:1012D000A9C0CF01880F991FB101672F62956F7068
:1012E0007727669566956695682B792B4B018094D8
:1012F0009094440C551C8901012F02950F70112701
:10130000069506950695042915295801A094B094D0
:10131000220C331C7C866B863701C301892F829592
:101320008F709927869586958695822993297C01C9
:10133000E094F094220F331FEF2FE295EF70FF2718
:10134000E695E695E695E22BF32B9F0120953095E7
:10135000C984DA84EC0CFD1C4B805C80841C951CD9
:10136000AD01AF81B8852A1F3B1F2D803E80A21C96
:10137000B31C2B2D220F220B322F7901EC20FD20E4
:1013800049018420952029014A225B226A012221F9
:1013900033218E199F0968097909E409F509020BBF
:1013A000130BBB0CA12CAA1CB12C812C912C4989AC
:1013B0005A89440F551FAF85B8892A2F221F3B2F0A
:1013C000331F4B845C84422A532A2D853E85422B51
:1013D000532B5A8B498B660C771C4B895C899A017D
:1013E000232F22952F703327269526952695622A3E
:1013F000732A7301440F551FAB2FA295AF70BB2703
:10140000A695A695A6954A2B5B2BD6015C8B4B8B9C
:101410001197588A4F869F0128011C01FB01C501C5
:10142000340151CF4B895C89440F551FEE1CFF1CC2
:10143000AF85B8898B2F880F612D661F712D617064
:101440007070642B752B89899A89880F991FAA1F40
:10145000BB1F6A2A7B2AAD85BE85A82BB92B498183
:101460005A814115510509F4CAC0CF01FA013583EB
:101470002483318220825782468293838283BFC035
:10148000C90101972095309528233923C9019695E4
:10149000879585759575281B390BC90183739373DF
:1014A000369527953695279523733373280F391F63
:1014B000C901929582958F7089279F708927820F25
:1014C000931F8F709F70FC01EF2FFF27E80FF91F0C
:1014D000F070E030B101730151F08E2FB101730152
:1014E000F694E794779567958A958030C9F7E0324E
:1014F00009F478C08E2F8052D101839591E080301D
:1015000009F0912DAA0FBB1F661C771C9130A9F71B
:1015100070C080E490E08E1B9F0B8030B401A60168
:1015200099F02F853889922F2A2D921B9F51B40153
:10153000A601939521E0903009F0212D660F771FC9
:10154000441F551F2130A9F7DA018030A101630142
:1015500091F08F8598892A2D821B8F51A1016301FB
:10156000839591E0803009F0912D440F551FCC1CDC
:10157000DD1C9130A9F7B097E0307A8B698B81F050
:101580008F85988980952A2D820F839591E08030F0
:1015900009F0912D16950795979487949130A9F7A6
:1015A00048295929C02AD12AE0305C8B4B8B09F499
:1015B00042C08F859889682F60956A0D20E030E0E1
:1015C000F301962F939581E0692F903009F0812DDA
:1015D0008170F695E79537942794803091F37601E2
:1015E00029016ACED10105C0169507959794879475
:1015F000EA95E030C9F7A829B929602A712A9D0126
:10160000A301C70164960FB6F894DEBF0FBECDBF2D
:10161000DF91CF911F910F91FF90EF90DF90CF90CE
:10162000BF90AF909F908F907F906F905F904F9002
:101630003F902F900895760120E030E0290158CCAA
:101640002F923F924F925F926F927F928F929F92D2
:10165000CF92DF92EF92FF920F931F93CF93DF937E
:10166000CDB7DEB726970FB6F894DEBF0FBECDBF5D
:101670001A83098316012A0139017C826B82950144
:10168000A1013E822D820E94F3214B018C01B70102
:1016900089819A819301A2010E94F3217B016C014F
:1016A000E80CF91CC01ED11E00E010E0B101C80119
:1016B0009201A8010E94F3214B013C018E0C9F1C5A
:1016C0006C1C7D1CB501C8012B803C809101A801D8
:1016D0000E94F3217B016C01B501C8019201A801B0
:1016E0000E94F321C60ED71E801F911F880E991EDF
:1016F000601E711E6D817E81C8019101A8010E944A
:10170000F321C60ED71E801F911F880E991E601EE2
:10171000711E9701A601B401C30126960FB6F89475
:10172000DEBF0FBECDBFDF91CF911F910F91FF9014
:10173000EF90DF90CF909F908F907F906F905F9011
:101740004F903F902F9008954F925F926F927F92AB
:101750008F929F92AF92BF92CF92DF92EF92FF92C1
:101760000F931F934A0139010E94DC0BE0E0F0E087
:1017700000EF11E45F016F017F012F010E94CF0C88
:1017800000E313EC5201620172010E945D1300E359
:1017900013E4530164010E945D131F910F91FF90A8
:1017A000EF90DF90CF90BF90AF909F908F907F9001
:1017B0006F905F904F900895CF92DF92EF92FF92DB
:1017C0000F931F9320E030E041E06115710582071F
:1017D000930709F0412D4170403009F053C0D90101
:1017E000A61BB70BA901480B590BE92FFE2FFF23AE
:1017F0000AF0AC01EE230AF0DB014115510509F0B6
:1018000045C0BD01769567956A2B7B2BFB01F6954C
:10181000E795F695E795E62BF72B8F011295029544
:101820000F7001271F7001270E2B1F2BB801672F88
:101830007727602B712B60957095FB01F695E795E6
:10184000E575F5756E1B7F0BFB01E373F3737695FE
:10185000679576956795637373736E0F7F1F8B0122
:10186000129502950F7001271F700127060F171F91
:101870000F701F70F801EF2FFF27E00FF11FF070BE
:10188000709643C0A901B901F90181C0BA017695EA
:101890006795642B752BFB01F695E795F695E79513
:1018A000E62BF72B8F01129502950F7001271F7001
:1018B00001270E2B1F2BB801672F7727602B712B69
:1018C00060957095FB01F695E795E575F5756E1BCE
:1018D0007F0BFB01F695E795F695E79563737373B8
:1018E000E373F373E60FF71FBF01729562956F7094
:1018F00067277F7067276E0F7F1F6F707F70FB01F8
:10190000EF2FFF27E60FF71FF0706FE170E06E27F3
:101910007F2780709078643309F420C0645300E01E
:1019200010E0D12C9D017801639571E0603009F0E1
:10193000712DA52FAA0FCD2CCC1CAD2DBD2D000FC8
:10194000111FEE1CFF1CEA2AFB2A0C291D29220F5D
:10195000331F441F551F713039F703C089019D01A2
:101960007801AEE1B4E0AE1BBF0BB295B07FA2959B
:10197000BA27A07FBA27712D612DE0E1F0E0EE25B6
:10198000FF25600F711FEA1FFB1FE82BF92BCF010A
:101990001F910F91FF90EF90DF90CF9008952F92BD
:1019A0003F924F925F926F927F928F929F92AF92EF
:1019B000BF92CF92DF92EF92FF920F931F93CF933C
:1019C000DF93CDB7DEB7A0970FB6F894DEBF0FBE9A
:1019D000CDBFF801D8A2CF8ED5016C012B015A01E1
:1019E0003C8F2B8FCF018C259D25807090789E8B0E
:1019F0008D8B4E2F42954F705F2F529545275F700C
:101A0000452757708C2D82958F709D2D9295892733
:101A10009F7089279770988F8F8B8F5F97409F015A
:101A20002F7030703A8B298B360196012F703070F1
:101A30003E8F2D8F60E070E028EF82309207588B48
:101A40004F8708F43DC1CA018F5F974082309207EB
:101A500008F436C1FA86E9865C8A4B8A7C876B87F4
:101A60006501DE86CD86AA0FBB1F8F8D98A1582EEB
:101A7000551CAA0FBB1F551CAA0FBB1F551C4B2E74
:101A80003A2F212D2070387F4901A2017B01C70127
:101A9000AB8CBC8C87010E94200B3A8F298F3A01B6
:101AA0001B019C838B83ED8DFE8DE061FE8FED8F9E
:101AB0009401A201B701C701AB88BC886F010E94E5
:101AC000200B7E836D8398878F832070387F220D53
:101AD000331D3A8329838B819C81481F591F5C8366
:101AE0004B832701441C551C4701881C991C8F8D72
:101AF00098A182958F70929589279F7089279695D6
:101B00008795BC01812D912D29853A85220F331FA0
:101B100049895A89441F220F331F441F220F331F44
:101B2000441F542F432F322E212C262A372A482B8C
:101B3000592B50685A8749879101B701C701AB8C6F
:101B4000BC8CCD84DE840E94200B7E876D879C8FA9
:101B50008B8F89819A81280F391F3A8B298B8B8132
:101B60009C81481F591F58A34F8F4E1C5F1C8E1C11
:101B70009F1C910149855A85B701C701AB88BC8874
:101B8000CD8CDE8C0E94200B8901FA012D813E81D3
:101B9000020F131F2F813885E21FF31F6E1D7F1D5B
:101BA0008E1D9F1D2D853E85020F131F2B8D3C8D95
:101BB000E21FF31F6E1D7F1D8E1D9F1D040D151D41
:101BC000E81DF91D6E1D7F1D8E1D9F1D9E8F8D8F23
:101BD0009C012071307081E011141104EE04FF04A7
:101BE000EE04FF042E053F0509F0812D8170498D1B
:101BF0005A8D4070587FAF89B88D2F853889A20FD4
:101C0000B31F2B853C85A20FB31FAF5FB34080305D
:101C100009F478C0872D880F212D221F312D5A01FC
:101C2000412D512DE988FA88EE0CFF1C8F8D98A16B
:101C3000C82ECC1CD92EDD1CC42AD52AE22AF32AB0
:101C4000FA8AE98AAA0CBB1C661C771CAF01440FF8
:101C5000551F9801232F22952F70332726952695FF
:101C60002695242B352BAF01FB01EE0FFF1F452FCF
:101C700042954F7055274695469546954E2B5F2BBE
:101C8000ED8DFE8DEE0FFF1F672F62956F7077272A
:101C9000669566956695E62BF72BFE8FED8F000F08
:101CA000111F892F82958F70992786958695869525
:101CB000082B192BF901BA01A501D8A2CF8E23C098
:101CC000A3015F7700EF1FE781E06B8D7C8D6130B2
:101CD0007105B50120E030E06207730760E070E055
:101CE0004606570618014007510708F0812D8170FC
:101CF000803009F02AC0C3018860B2010B8D1C8DB1
:101D0000F5014FC2119687E0AF3FB8074CF08D89BF
:101D10009E89806F9F6700E010E0F801B80141C222
:101D20001A161B060CF05BC0B295B07FA295BA27BD
:101D3000A07FBA27F12CE12CE62AF72A8D8D9E8D03
:101D40008F7090708A2B9B2B36C1CF019F779B01A0
:101D500061E0A130B1050F8D18A102071307E2065B
:101D6000F30691018207930708F0612D61706030DE
:101D700041F4E8608D012F8D38A1B701CF01F90141
:101D800010C261E0EB8DFC8DE115F105F50120E05D
:101D900030E0E207F307420653069101420753077A
:101DA00009F4612D6170603009F04AC121E0A1158C
:101DB000B10540E050E06F8D78A164077507E40637
:101DC000F5068407950709F0212D2170203009F4CC
:101DD0009ECF88EF9FE78A01FA01BA01E2C181E054
:101DE00090E08A1B9B0B8034988B8F87910508F0BD
:101DF000D2C1FE87ED871C8F0B8F8A2F988F8F8B18
:101E0000CD01CF9680305A8F498FFA01D3010989CD
:101E10001A897801CF8CD8A0E9F0312D432F532FA8
:101E2000982FE98DFA8DD3017801CF8CD8A02B2F74
:101E3000220F232F221FEE0CFF1CCC1CDD1CC42AFA
:101E4000D52AE22AF32AEE0FFF1FAA1FBB1F9A957D
:101E5000903069F780304B8D5C8DAD84BE842B0152
:101E60002D8C3E8CE9F0312D832E932E4B8D5C8D85
:101E7000AD84BE842B012D8C3E8C9B2D990F232F7E
:101E8000221F440C551C221C331C28283928422AA6
:101E9000532A440F551FAA1CBB1C8A95803069F732
:101EA0007C876B878F859889803009F42DC08F8956
:101EB000988D782F7A95812C382D282D3C8B2B8B63
:101EC000739561E0703009F0612D76946794298DE7
:101ED0003A8D37952795902E9694982C979468284C
:101EE0007928C3016B887C88262937293C013A8FE1
:101EF000298F2F8D38A13695279538A32F8F1795C9
:101F00000795613009F0DCCF81E0E115F10520E0B3
:101F100030E0A207B307E206F306C206D30609F4CF
:101F2000812D81709070298D3A8D422B532B482B37
:101F3000592B6A287B28042915291A8B098B8F8D28
:101F400098A18229932998A38F8F8F8598898030B3
:101F50000B8D1C8DED85FE856B857C8509F428C075
:101F60008F89988DA82FAA95CA2E812D382F282FBA
:101F7000F695E7957F0117950795962F9695982FDB
:101F80009795AC2DA395E1E0CA2EA03009F0E12D84
:101F9000E82AF92A022B132BE170AD8DBE8DB69580
:101FA000A795BE8FAD8F77956795E030F70101F368
:101FB0007B018D8D9E8DA0E0B0E821E041306A016B
:101FC000510560E070E06606770649895A89460740
:101FD00057074F8D58A14A075B0708F0212D217044
:101FE0004D895E89842B952B203059F40F5F1F4F4C
:101FF000EF4FFF4F97012F4F3F4F79018F4F9F4F6B
:102000001DC021E0C114D1046606770649895A89AA
:10201000460757074F8D58A14A075B0709F4212D42
:102020002170203059F4980121703070020F131F75
:10203000E61FF71FE61EF71E861F971FB701B1C0E8
:1020400061E0A115B10520E030E00F8D18A1020775
:102050001307E206F3068205930509F4612D61700A
:102060006030B9F481E0EB8CFC8CE114F104E20700
:10207000F307420653064207530709F0812D81708A
:10208000803009F444CE88EF9FE78901F901B90156
:1020900088C021E06B8D7C8D6115710560E070E07A
:1020A000E607F707460657064607570709F4212DA6
:1020B0002170203009F46FC021E0A115B105EF8D2A
:1020C000F8A1E607F707E606F7068607970709F47B
:1020D000212D2170203009F45EC020E130E08B0119
:1020E00061E0EB8DFC8DE115F1056501C006D106BF
:1020F0004006510682014207530708F4612D6170C2
:1021000060306D8D7E8D09F067C06115710509F035
:1021100068C0A80156954795402B512BBA0176957A
:10212000679576956795642B752BFB01F295E29583
:10213000EF70EF27FF70EF27E62BF72BAF01452F4E
:1021400055274E2B5F2B40955095BA017695679594
:1021500065757575461B570BBA0163737373569596
:1021600047955695479543735373460F571FBA01CA
:10217000729562956F7067277F706727640F751F70
:102180006F707F70FB01EF2FFF27E60FF71FF070D6
:1021900070961F0166C000E010E0F801B8018D895B
:1021A0009E899801AF01A0960FB6F894DEBF0FBECE
:1021B000CDBFDF91CF911F910F91FF90EF90DF90F6
:1021C000CF90BF90AF909F908F907F906F905F90D7
:1021D0004F903F902F90089560E070E07C876B8770
:1021E00008C1AB0156954795462B572BBA017695FA
:1021F000679576956795642B752BFB01F295E295B3
:10220000EF70EF27FF70EF27E62BF72BAF01452F7D
:1022100055274E2B5F2B40955095BA0176956795C3
:1022200065757575461B570BBA01637373735695C5
:1022300047955695479543735373460F571FBA01F9
:10224000729562956F7067277F706727640F751F9F
:102250006F707F70AB01452F5527460F571F507089
:102260001A01B5016115710509F043C06B8D7C8DB4
:10227000AB0156954795462B572BBA017695679536
:1022800076956795642B752BFB01F295E295EF70BF
:10229000EF27FF70EF27E62BF72BAF01452F5527D0
:1022A0004E2B5F2B40955095BA01769567956575D5
:1022B0007575461B570BBA01637373735695479533
:1022C0005695479543735373460F571FBA0172953E
:1022D00062956F7067277F706727640F751F6F7037
:1022E0007F70FB01EF2FFF27E60FF71FF07070964E
:1022F0003FC0AB0156954795462B572BBA017695B3
:10230000679576956795642B752BFB01F295E295A1
:10231000EF70EF27FF70EF27E62BF72BAF01452F6C
:1023200055274E2B5F2B40955095BA0176956795B2
:1023300065757575461B570BBA01637373735695B4
:1023400047955695479543735373460F571FBA01E8
:10235000729562956F7067277F706727640F751F8E
:102360006F707F70FB01EF2FFF27E60FF71FF070F4
:1023700041E00115110560E070E00D8D1E8D06072E
:10238000170709F4412D403011F4B0961F01A10147
:102390004B504030E1F0712D072F172F8B8C9C8C08
:1023A0006501ED8DFE8D5D2D550F672F661F440C69
:1023B000551CEE1FFF1FE02BF12B462A572A880CD5
:1023C000991CCC1CDD1C4A95403069F705C08B8CEC
:1023D0009C8C6501ED8DFE8D9C8E8B8EFE8FED8F1E
:1023E0004CE050E0421953095C874B8760E070E095
:1023F000820141E0A115B105EF8DF8A1E607F707CD
:10240000E606F7068207930708F4412D4170403035
:102410001C8B0B8B09F047C029893A89211531059E
:1024200009F044C0C701969587958E299F299C0184
:102430003695279536952795282B392BA901529546
:1024400042954F7045275F704527422B532BCA0199
:10245000892F9927842B952B809590959C013695F3
:10246000279525753575821B930B9C012373337358
:10247000969587959695879583739373820F931F8F
:102480009C01329522952F7023273F702327280F18
:10249000391F2F703F70C901892F9927820F931F11
:1024A0009070409642C0FA86E986DBCAC9019695CB
:1024B0008795822B932B9C013695279536952795EA
:1024C000282B392BA901529542954F7045275F70F3
:1024D0004527422B532BCA01892F9927842B952BF3
:1024E000809590959C013695279525753575821BAD
:1024F000930B9C01237333739695879596958795D7
:1025000083739373820F931F9C01329522952F70D2
:1025100023273F702327280F391F2F703F70C901D1
:10252000892F9927820F931F90704F8D58A14115C5
:10253000510509F041C09D01369527952A2B3B2B6B
:10254000A9015695479556954795422B532BBA01AD
:10255000729562956F7067277F706727642B752B64
:102560009B01232F3327262B372B20953095A9014C
:102570005695479545755575241B350BA901437331
:102580005373369527953695279523733373240F08
:10259000351FA901529542954F7045275F70452719
:1025A000420F531F4F705F70FA01EF2FFF27E40FA8
:1025B000F51FF07070963FC09A0136952795242B31
:1025C000352BA9015695479556954795422B532B88
:1025D000BA01729562956F7067277F706727642BC9
:1025E000752B9B01232F3327262B372B20953095D6
:1025F000A9015695479545755575241B350BA901BD
:102600004373537336952795369527952373337304
:10261000240F351FA901529542954F7045275F70D1
:102620004527420F531F4F705F70FA01EF2FFF27AE
:10263000E40FF51FF07021E0E114F10440E050E0F8
:1026400069897A896407750709F4212D203011F40E
:10265000B096CF01282F2B502030D9F0512D652F67
:10266000752FAF8CB8A0E989FA893B2D330F452F20
:10267000441FEE0CFF1CEE1FFF1FE62BF72BE42A76
:10268000F52AAA0FBB1FAA1CBB1C2A95203069F78C
:1026900004C0AF8CB8A0E989FA89B8A2AF8EFA8BD2
:1026A000E98BFA86E986EB85FC85E81BF90B3C96FD
:1026B000FC87EB8760E070E0D4C92F923F924F9285
:1026C0005F926F927F928F929F92AF92BF92CF92C2
:1026D000DF92EF92FF920F931F93CF93DF93CDB7CB
:1026E000DEB762970FB6F894DEBF0FBECDBF1A8B70
:1026F000098B8C012B013A011E870D871F77C801BA
:10270000805F9F4740E050E0E0E1F0E8A1E0213049
:10271000388B2F87310564067506440655068E07EB
:102720009F0708F0A12DA17069897A897F77A03071
:1027300009F0B6C09B01205F3F47A1E0A5014130F1
:10274000510540E050E0C406D506470184069506D1
:102750002E073F0708F4A12DA170A03009F4A0C0F6
:10276000E1E0D5018F8598898A179B076C047D0469
:10277000C701480659060607170708F0E12DE17062
:10278000E0302D853E8511F429893A89E0307201C7
:1027900009F47C01422F42954F70532F52954527E3
:1027A0005F704527E03009891A8911F40D851E856F
:1027B0001A01E03009F4C2014C01402F42954F70DC
:1027C000512F529545275F704527E030530109F49A
:1027D0005601E0306F85788909F4BD01CA01977010
:1027E0002C01E03009F46301C10197701C01E03055
:1027F00011F4AF85B8892F7030701A8709870F7070
:1028000010704115F201F1058CE090E009F0A0C1D3
:102810003C0101151105A40109F0A8C0CA01969553
:1028200087954A01842B952BAC0156954795569573
:102830004795482B592BFA01F295E295EF70EF2757
:10284000FF70EF27E42BF52BCF01892F99278E2BD3
:102850009F2B80959095AC0156954795457555757C
:10286000841B950BAC01437353739695879596958E
:10287000879583739373840F951FAC01529542958E
:102880004F7045275F704527480F591F4F705F7085
:10289000CA01892F9927840F951F90704096A6C072
:1028A000E0EFFFE7A1E08F8598898130910520E076
:1028B00030E062067306420653060E071F0708F053
:1028C000A12DA170A03041F48D859E8588602F8553
:1028D00038894301120166C6A1E0A50141305105C6
:1028E000C206D3061701220633066E077F0708F0DB
:1028F000A12DA170A03031F489899A898860950151
:10290000460150C6A1E08F85988981159105620620
:102910007306420653060E071F0709F4A12DA17086
:10292000A03009F0FFC3C624D724242435246989A4
:102930007A898D859E85682779278F859889A8262D
:10294000B926A90120E030E881E0A114B104C40651
:10295000D506240635066207730709F0812D8170BC
:10296000803009F0F4C34D855E85F3C34A01C80188
:1029700096958795802B912BAC015695479556954A
:102980004795482B592BFA01F295E295EF70EF2706
:10299000FF70EF27E42BF52BCF01892F99278E2B82
:1029A0009F2B80959095AC0156954795457555752B
:1029B000841B950BAC01437353739695879596953D
:1029C000879583739373840F951FAC01529542953D
:1029D0004F7045275F704527480F591F4F705F7034
:1029E000CA01892F9927840F951F90702C01C1145B
:1029F000D10409F041C0CD01969587958A2B9B2B78
:102A0000AC015695479556954795482B592BFA0199
:102A1000F295E295EF70EF27FF70EF27E42BF52B8F
:102A2000CF01892F99278E2B9F2B80959095AC01F4
:102A30005695479545755575841B950BAC014373A9
:102A40005373969587959695879583739373840FA3
:102A5000951FAC01529542954F7045275F704527F1
:102A6000480F591F4F705F70CA01892F9927840F33
:102A7000951F907040963FC0C601969587958C290A
:102A80009D29AC015695479556954795482B592B4E
:102A9000FA01F295E295EF70EF27FF70EF27E42B34
:102AA000F52BCF01892F99278E2B9F2B8095909501
:102AB000AC015695479545755575841B950BAC0132
:102AC0004373537396958795969587958373937300
:102AD000840F951FAC01529542954F7045275F704A
:102AE0004527480F591F4F705F70CA01892F9927DA
:102AF000840F951F907041E0F401E115F105E0E0CD
:102B0000F0E00E071F0709F4412D403011F48096C4
:102B10002C01C201482F4B504030B1F0912DE92FCC
:102B2000F92F8D2D880F892F881F880C991C001F65
:102B3000111F0E2B1F2B882A992AAA0FBB1FCC1CF2
:102B4000DD1C4A95403069F7C301FC01E419F50921
:102B5000210141145104FC87EB8711F0320135C18A
:102B60003C012115310509F041C0C70196958795B3
:102B70008E299F29AC015695479556954795482B28
:102B8000592BFA01F295E295EF70EF27FF70EF27CE
:102B9000E42BF52BCF01892F99278E2B9F2B809526
:102BA0009095AC015695479545755575841B950BC9
:102BB000AC01437353739695879596958795837368
:102BC0009373840F951FAC01529542954F70452722
:102BD0005F704527480F591F4F705F70CA01892FDA
:102BE0009927840F951F907040963FC0C901969514
:102BF0008795822B932BAC01569547955695479513
:102C0000482B592BFA01F295E295EF70EF27FF70F0
:102C1000EF27E42BF52BCF01892F99278E2B9F2BA4
:102C200080959095AC015695479545755575841BD3
:102C3000950BAC014373537396958795969587953D
:102C400083739373840F951FAC01529542954F7017
:102C500045275F704527480F591F4F705F70CA01A5
:102C6000892F9927840F951F90702C01A114B1040E
:102C700009F041C0CB0196958795862B972BAC0127
:102C80005695479556954795482B592BFA01F2953D
:102C9000E295EF70EF27FF70EF27E42BF52BCF01C4
:102CA000892F99278E2B9F2B80959095AC01569557
:102CB000479545755575841B950BAC01437353734C
:102CC000969587959695879583739373840F951F33
:102CD000AC01529542954F7045275F704527480FCC
:102CE000591F4F705F70CA01892F9927840F951F54
:102CF000907040963FC0C501969587958A299B297B
:102D0000AC015695479556954795482B592BFA0196
:102D1000F295E295EF70EF27FF70EF27E42BF52B8C
:102D2000CF01892F99278E2B9F2B80959095AC01F1
:102D30005695479545755575841B950BAC014373A6
:102D40005373969587959695879583739373840FA0
:102D5000951FAC01529542954F7045275F704527EE
:102D6000480F591F4F705F70CA01892F9927840F30
:102D7000951F907041E0E114F104E0E0F0E02E07CF
:102D80003F0709F4412D403011F480962C01C20117
:102D90008B508030B1F0512DE52FF52F9B2D990FE1
:102DA000452F441FEE0CFF1C221F331F2E2B3F2BE1
:102DB000E42AF52A660F771FAA1CBB1C8A9580306F
:102DC00069F764187508EB85FC85512D4B2D4295EC
:102DD0004F704695852F952FEE0CFF1C221F331F39
:102DE000EE0CFF1C221F331FEE0CFF1C221F331F93
:102DF000E42AF52A4D2D42954F704695452E588769
:102E00004F83552E880C991C001F111F880C991C8C
:102E1000001F111F880C991C001F111F282B392B14
:102E20002068660F771FAA1CBB1C660F771FAA1CA1
:102E3000BB1C660F771FAA1CBB1CAA0FBB1FCC1C98
:102E4000DD1CAA0FBB1FCC1CDD1CAA0FBB1FCC1C9A
:102E5000DD1C89899A894D855E85842795279A8B03
:102E6000898BE615F70509F487C0E619F70980E0B4
:102E700090E0E034F10508F07AC05C824B82788AF9
:102E80006F869E828D82BE87AD878E2F9A838983BF
:102E9000E0343B0125011701C90109F425C08B85E8
:102EA0009C85582F8F859889581B5054912CE92D5B
:102EB000F92D3B0125011701C901539541E050301F
:102EC00009F0412DA52DAA0F892C881C220C331C3A
:102ED000881F991F8E2B9F2B28283928660C771C5A
:102EE000441C551C413049F749815A81403009F44E
:102EF00026C04B855C85EF85F8898E2E841A412D7E
:102F0000F42FE42FF88BEF87AF85B889582D5395B0
:102F1000E1E0852E503009F0E12DB694A794779525
:102F200067955E2D5695542F5795A42AB52A6A2B7E
:102F30007B2B36952795F794E794E13039F741E0FC
:102F400061147104E0E0F0E04E065F062E063F06D5
:102F50008E079F0709F4412D41705070642B752B2B
:102F60008D809E804B805C80AD85BE8505C061E014
:102F700070E05C017C019C010429152981E04989EC
:102F80005A8955230AF4812DA401EF81F8854E2B2F
:102F90005F2B0068E985FA85E070F0781F01817089
:102FA000803009F420C0A60FB71FAC1CBD1CE41E66
:102FB000F51E201F311FA9014070517081E01114CE
:102FC0001104E0E0F0E0EE07FF07EE07FF074E0711
:102FD0005F0709F0812D81708030EB85FC8509F455
:102FE00021C0650138C081E0A617B707CA04DB0419
:102FF0004E055F050207130709F0812D8170A61B9E
:10300000B70BCA08DB084E095F09020B130B20E05F
:1030100030E08030EB85FC8509F42CC049011901B2
:10302000C901C0C2B694A794B795A7958E2D869571
:10303000D12CD794C12C912D812DCA28DB288A2B25
:103040009B2B61707070682B792B36952795F794C0
:10305000E7943196DB01A701890187E0EF3FF8078C
:103060000CF4A1C1C101806F9F6720E030E04901ED
:10307000190198C2B90120E830E081E0A115B1053D
:10308000C606D7065B01460757070207130708F471
:10309000812D8170803009F7011511057A0109F041
:1030A00091C0CA0196958795842B952B9C013695E6
:1030B000279536952795282B392BA90152954295AE
:1030C0004F7045275F704527422B532BCA01892F2C
:1030D0009927842B952B809590959C013695279563
:1030E00025753575821B930B9C012373337396955D
:1030F00087959695879583739373820F931F9C0191
:10310000329522952F7023273F702327280F391FD0
:103110002F703F70C901892F9927820F931F9070DC
:1031200040968FC0A1E0A501411551051701C206C7
:10313000D306220633066E077F0709F0A12DA17082
:10314000A030B9F09501460189899A892BC248EFD0
:103150005FE720E030E08030190109F4120180308F
:10316000490109F44301803011F42F853889CA01DF
:1031700019C2E1E08F859889811591056206730671
:103180004206530602071307A50109F4E12DE17079
:10319000E03009F436C2E1E041155105C206D3061C
:1031A000A701420753076207730709F0E12DE17099
:1031B000E0302F853889430112018D859E8509F401
:1031C000CFCAF0C1C80196958795802B912B9C01A1
:1031D0003695279536952795282B392BA901529599
:1031E00042954F7045275F704527422B532BCA01EC
:1031F000892F9927842B952B809590959C01369546
:10320000279525753575821B930B9C0123733373AA
:10321000969587959695879583739373820F931FE1
:103220009C01329522952F7023273F702327280F6A
:10323000391F2F703F70C901892F9927820F931F63
:103240009070C114D10409F041C09D0136952795B5
:103250002A2B3B2BA9015695479556954795422B0E
:10326000532BBA01729562956F7067277F7067273D
:10327000642B752B9B01232F3327262B372B20956F
:103280003095A9015695479545755575241B350B05
:10329000A901437353733695279536952795237364
:1032A0003373240F351FA901529542954F7045275E
:1032B0005F704527420F531F4F705F70FA01EF2F69
:1032C000FF27E40FF51FF07070963FC0960136950A
:1032D00027952C293D29A90156954795569547953F
:1032E000422B532BBA01729562956F7067277F70DE
:1032F0006727642B752B9B01232F3327262B372B16
:1033000020953095A9015695479545755575241B0F
:10331000350BA90143735373369527953695279539
:1033200023733373240F351FA901529542954F70B3
:1033300045275F704527420F531F4F705F70FA019A
:10334000EF2FFF27E40FF51FF07021E0A7014115D3
:1033500051050A051B0509F4212D203011F4B09602
:10336000CF0108978030D1F0312D432F532F682F94
:10337000EB85FC852D2D220F232F221FEE0CFF1C29
:10338000001F111F042B152BE22AF32AAA0FBB1FC3
:10339000CC1CDD1C6A95603069F702C0EB85FC85AA
:1033A000E81BF90BA7011E161F060CF460C0CF0125
:1033B000E1E0F0E0E81BF90B482EF82FF15CF0306B
:1033C0004D01CD0196013A01B801D1F0F12CAF2C9D
:1033D000BF2CC4019601A301B801A32FAA0FEF2CA3
:1033E000EE1C440F551F661F771F6A297B294E2943
:1033F0005F29880F991F221F331FFA95F03069F754
:10340000E03009F420C04A94A42CE12DFE2EEE2ECB
:1034100028010A2D0395A1E0A02E003009F0A12D6E
:10342000D694C79497948794F62DF695FE2FF7952A
:10343000CE2ADF2A8E289F28820116950795779439
:103440006794A13029F7E1E08115910580E090E0D3
:1034500028073907480759076807790709F4E12D54
:10346000E170F070D401AE2BBF2BFC01A301F295EB
:10347000F07FE295FE27E07FFE27912D812D1695A6
:1034800007955795A42EA794169507955795A79439
:10349000169507955795A794B52EA82AB92AD694BC
:1034A000C7949B2F97958A2F8795D694C794979505
:1034B0008795D694C794979587954295407F440FFA
:1034C000742E612C512C412C6C287D28482A592AB5
:1034D0000F7010700E2B1F2BC101082B192BA7701A
:1034E000B0707D010E94261B8230910509F475C0E1
:1034F0008130910509F42EC08115910520E030E05E
:10350000A70109F044C081E04530510508F4812D40
:10351000C82EDD24C40CD51C4301821E931E150148
:10352000221E331EC801821F931F7C0144305105A7
:1035300009F031C0C20181709070840D951D6C013D
:10354000621E731EA21EB31E021F131F430115012C
:10355000780124C081E0A7014115510591E020E0E8
:1035600030E009F4912D11141104220733072207CA
:1035700033072206330609F4812D89239927480E43
:10358000591E621E731EA21EB31E021F131F62016C
:103590004301150178014115510511F00E94291BC5
:1035A000C7019601A401B10162960FB6F894DEBF7F
:1035B0000FBECDBFDF91CF911F910F91FF90EF9084
:1035C000DF90CF90BF90AF909F908F907F906F9043
:1035D0005F904F903F902F90089581E0A701411593
:1035E000510591E009F4912D1114110420E030E00F
:1035F00022073307220733072206330609F0BCCF20
:10360000BCCF81E041155105C206D306F701E207A0
:10361000F3076207730709F4812D817080309A01E6
:103620004601170189899A8909F0BCCF8F8598894D
:10363000A822B922C620D720170124203520898945
:103640009A892D853E858223932359C980E090E095
:10365000089580E090E008952F923F924F925F92FC
:103660006F927F928F929F92AF92BF920F931F9310
:10367000CF93DF93CDB7DEB724970FB6F894DEBFB4
:103680000FBECDBF25015B011A019C838B839F7701
:10369000A0E0B0E040EF5FE7E1E0213031052A062D
:1036A0003B06AA06BB0684079507F1E008F4F12D56
:1036B000F170F03009F05AC01A8309831F77F1E0E6
:1036C000B20161307105CA06DB06EA06FB06040793
:1036D000150708F4F12DF170F03009F047C0B6017C
:1036E0006229732947018A289B28082B192B32014C
:1036F000622A732AE12D81E0611471046A077B0755
:103700008A069B060A071B0709F08E2F81708030FE
:1037100009F02CC069817A81CB014B815C818423C3
:10372000952381E099230AF0812D8170803009F082
:1037300033C081E0F2012E173F072C043D04AE0494
:10374000BF04460757070CF0812D8170803011F0BF
:10375000EFEF0CC0E1E0241535052C043D04AE0468
:10376000BF044607570709F4E12DE1708E2F249618
:103770000FB6F894DEBF0FBECDBFDF91CF911F9182
:103780000F91BF90AF909F908F907F906F905F90C0
:103790004F903F902F90089581E0F201E217F307D8
:1037A000C204D304EA04FB04640775070CF0CCCF11
:1037B000CCCF2F923F924F925F926F927F928F92D7
:1037C0009F92AF92BF920F931F93CF93DF93CDB78A
:1037D000DEB724970FB6F894DEBF0FBECDBF25012C
:1037E0005B011A019C838B839F77A0E0B0E040EFE0
:1037F0005FE7F1E0213031052A063B06AA06BB0649
:103800008407950708F4F12DF170EFEFF03009F01F
:103810005AC01A8309831F77F1E0B2016130710544
:10382000CA06DB06EA06FB060407150708F4F12DB5
:10383000F170F03009F047C0B601622973294701E1
:103840008A289B28082B192B3201622A732AE12D22
:1038500081E0611471046A077B078A069B060A07E8
:103860001B0709F08E2F8170803009F02CC0698110
:103870007A81CB014B815C818423952381E099235C
:103880000AF0812D8170803009F033C081E0F201AF
:103890002E173F072C043D04AE04BF04460757070C
:1038A0000CF0812D8170803011F0EFEF0CC0E1E061
:1038B000241535052C043D04AE04BF044607570704
:1038C00009F4E12DE1708E2F24960FB6F894DEBF37
:1038D0000FBECDBFDF91CF911F910F91BF90AF90E1
:1038E0009F908F907F906F905F904F903F902F9020
:1038F000089581E0F201E217F307C204D304EA0459
:10390000FB04640775070CF0CCCFCCCFAF92BF920D
:10391000CF92DF92EF92FF920F931F93A82FA29561
:10392000AF70B92FB295AB27BF70AB278D01177061
:10393000E0E0F0E0B3E0AF3F1B0718F49F01AF01F8
:1039400045C05F01F801EF51F440BFEFE03EFB07D7
:1039500050F4990F220B322F4FEF5FE74227532786
:103960002095309533C0033309F41FC08C010F70CC
:1039700010700061A353E12CDE2CCE2CA39581E0C6
:10398000A03009F0812D5695479537952795E62F5C
:10399000E695FE2CF7944E295F292C293D29169592
:1039A000079577956795813049F7F501BF01621B4F
:1039B000730BE40BF50B81E099230AF4812D8170E0
:1039C000803009F4AF01803009F49B01B901CA01CC
:1039D0001F910F91FF90EF90DF90CF90BF90AF902D
:1039E00008952F923F924F925F926F927F928F92A3
:1039F0009F92AF92BF92CF92DF92EF92FF920F937E
:103A00001F93CF93DF93CDB7DEB764970FB6F894CB
:103A1000DEBF0FBECDBF46011B016901E0E0F0E053
:103A200021E0A114B886AF82B1048E069F06FA8603
:103A3000E986EE06FF060E071F0709F0212D21700B
:103A4000203009F048C00115110509F048C069850A
:103A50007A859B0136952795262B372BB9017695CC
:103A6000679576956795622B732BDB01B295A295CE
:103A7000AF70AB27BF70AB27A62BB72B9D01232FB1
:103A800033272A2B3B2B20953095B90176956795E6
:103A900065757575261B370BB9016373737336959E
:103AA00027953695279523733373260F371FB90152
:103AB000729562956F7067277F706727620F731F1B
:103AC0006F707F70DB01AB2FBB27A60FB71FB070E5
:103AD00050967D0144C020E430E07901D3C09801C4
:103AE00036952795202B312BB901769567957695DC
:103AF0006795622B732BDB01B295A295AF70AB2754
:103B0000BF70AB27A62BB72B9D01232F33272A2B62
:103B10003B2B20953095B901769567956575757540
:103B2000261B370BB901637373733695279536954A
:103B3000279523733373260F371FB901729562954A
:103B40006F7067277F706727620F731F6F707F70BA
:103B50009B01232F3327260F371F307079018114E3
:103B6000910409F043C06F8178859B0136952795B4
:103B7000262B372BB9017695679576956795622B3D
:103B8000732BDB01B295A295AF70AB27BF70AB274B
:103B9000A62BB72B9D01232F33272A2B3B2B2095B8
:103BA0003095B9017695679565757575261B370B48
:103BB000B9016373737336952795369527952373EB
:103BC0003373260F371FB901729562956F7067279F
:103BD0007F706727620F731F6F707F70DB01AB2FE1
:103BE000BB27A60FB71FB07050963FC09401369503
:103BF000279528293929B90176956795769567958E
:103C0000622B732BDB01B295A295AF70AB27BF700F
:103C1000AB27A62BB72B9D01232F33272A2B3B2B1A
:103C200020953095B9017695679565757575261B54
:103C3000370BB901637373733695279536952795BE
:103C400023733373260F371FB901729562956F7016
:103C500067277F706727620F731F6F707F70DB01AC
:103C6000AB2FBB27A60FB71FB07021E069857A85FF
:103C7000611571050E071F0709F4212D203011F47D
:103C800090967D0121E0C114D1044E075F072E06F6
:103C90003F068E079F0709F0212D2170203009F083
:103CA00046C08115910509F045C0910136952795CB
:103CB00022293329B9017695679576956795622B08
:103CC000732BDB01B295A295AF70AB27BF70AB270A
:103CD000A62BB72B9D01232F33272A2B3B2B209577
:103CE0003095B9017695679565757575261B370B07
:103CF000B9016373737336952795369527952373AA
:103D00003373260F371FB901729562956F7067275D
:103D10007F706727620F731F6F707F70DB01AB2F9F
:103D2000BB27A60FB71FB07050965D0143C060E47B
:103D300070E0D0C09C0136952795282B392BB9010E
:103D40007695679576956795622B732BDB01B29517
:103D5000A295AF70AB27BF70AB27A62BB72B9D01E9
:103D6000232F33272A2B3B2B20953095B9017695AD
:103D7000679565757575261B370BB901637373738A
:103D8000369527953695279523733373260F371F5E
:103D9000B901729562956F7067277F706727620F10
:103DA000731F6F707F709B01232F3327260F371FE0
:103DB000307059014115510509F041C09601369501
:103DC00027952C293D29B9017695679576956795B4
:103DD000622B732BDB01B295A295AF70AB27BF703E
:103DE000AB27A62BB72B9D01232F33272A2B3B2B49
:103DF00020953095B9017695679565757575261B83
:103E0000370BB901637373733695279536952795EC
:103E100023733373260F371FB901729562956F7044
:103E200067277F706727620F731F6F707F70DB01DA
:103E3000AB2FBB27A60FB71FB07050963FC09A019B
:103E400036952795242B352BB90176956795769570
:103E50006795622B732BDB01B295A295AF70AB27F0
:103E6000BF70AB27A62BB72B9D01232F33272A2BFF
:103E70003B2B20953095B9017695679565757575DD
:103E8000261B370BB90163737373369527953695E7
:103E9000279523733373260F371FB90172956295E7
:103EA0006F7067277F706727620F731F6F707F7057
:103EB000DB01AB2FBB27A60FB71FB07021E0211489
:103EC00031048E079F0709F4212D2030B50111F42C
:103ED0009096BD019701F901E61BF70BE034F1055F
:103EE00030F020E030E07901B901F90138C1EF3359
:103EF000F10529F496017A01B101FC0130C1762F58
:103F00009A8289821C830B834C016E2FCF0101960C
:103F10009E878D87803036018A01F101240109F4E2
:103F200023C02E2D322F3095272F320FA12DBA2EE0
:103F3000AA2E36018A01F1012401339521E03030A7
:103F400009F0212D1695079577946794BE2FB695A5
:103F5000BA2FB7950A2B1B2B6A287B2856944794B7
:103F6000F795E795213049F76F3309F41FC06E2D9F
:103F7000671B6F53312DE32EF32E262F2395A1E0DF
:103F8000622F203009F0A12D252F220F232F221F71
:103F9000220C331C881C991C8E289F28222A332A25
:103FA000CC0CDD1C441F551FA13039F7588B4F87AF
:103FB0003A8A298ADC8ACB8A80E090E05C019E8381
:103FC0008D837C018D859E852F803884BE86AD864D
:103FD0008115910509F49DC0D801AA0FBB1F93015B
:103FE000232F22952F7033272695269526952A2B49
:103FF0003B2BFC86EB867901E094F094DF01AA0F5D
:10400000BB1F012F02950F70112706950695069587
:104010000A2B1B2BB80160957095440C551CEF2F93
:10402000E295EF70FF27E695E695E6954E2A5F2A22
:104030005201A094B094660C771CD401AB2FA295CA
:10404000AF70BB27A695A695A695A629B729FD0111
:10405000E095F095E20DF31D69807A80E61CF71C6F
:10406000A20149845A84641D751DCB80DC80AC1C80
:10407000BD1C6B2D660F660B762FFB01E221F32131
:104080007B01E620F7203B01642075202A016C218A
:104090007D21AE1BBF0B2E093F09F801E609F70988
:1040A000460A570ABB0CA12CAA1CB12CE12CF12CFE
:1040B0004F855889652F660F612D661F712D012D63
:1040C000112DC988DA88CC0CDD1C881C991C802A2B
:1040D000912A0D811E81802A912AC62AD72AC02AB8
:1040E000D12ADA8AC98A6B897C89660F771F441FB7
:1040F000551F0B851C85402B512B588B4F874D85A9
:104100005E85642B752B7C8B6B8B01973D01890140
:104110005DCF4F855889252F220F212D221F312D4C
:10412000612D712DA989BA89AA0FBB1F881C991C02
:10413000862A972A6D817E81FB01E829F929A22B25
:10414000B32B6A2B7B2B8B899C89880F991F441F6B
:10415000551FE42AF52A2D853E85282B392BA701EA
:10416000CF0164960FB6F894DEBF0FBECDBFDF91CE
:10417000CF911F910F91FF90EF90DF90CF90BF9064
:10418000AF909F908F907F906F905F904F903F90F7
:104190002F900895DC01A115B10529F060958C914F
:1041A00086238C9308950E94E424DC01A115B105B7
:1041B00011F08C9108950E94E424DC01A115B10551
:1041C00021F08C91862B8C9308950E94E4240F9209
:1041D0000FB60F92EF92FF920F931F932F933F937F
:1041E0004F935F936F937F938F939F93AF93BF93FF
:1041F000EF93FF938091FF04909100052091A50417
:104200003091A60440910105509102056091A704E8
:104210007091A804E0910305F0910405A091A90410
:10422000B091AA040091050510910605E090AB0439
:10423000F090AC04280F391F641F751FAE1FBF1FFD
:10424000E01EF11EB0930405A0930305F09206054D
:10425000E0920505309300052093FF04709302055A
:1042600060930105FF91EF91BF91AF919F918F9165
:104270007F916F915F914F913F912F911F910F917E
:10428000FF90EF900F900FBE0F9018950F920FB602
:104290000F922F938F939F93AF93BF938091C600FC
:1042A0009091C0009C719030A1F49091CD04209128
:1042B000CE04921B903269F09091CD049395909327
:1042C000CD049091CD049F71A92FBB27A355BB4F5F
:1042D0008C93BF91AF919F918F912F910F900FBEB3
:1042E0000F9018951F930E948321FB01182F32977E
:1042F000CF010E94D520982F912381E0903009F4BE
:10430000812D1F910895883038F491E08A9512F03C
:10431000990FFCCF65E216C0803140F4885091E0DF
:104320008A9512F0990FFCCF68E20CC0805121E011
:10433000982F9A9512F0220FFCCF8830912D08F417
:10434000922F6BE270E0892F0895EF92FF920F9306
:104350001F93062F0E9483217B01182FC70101970D
:10436000023031F0612F0E94CA20C701003041F0B5
:10437000612F0E94DD201F910F91FF90EF90089513
:10438000612F0E94CA20F7CF61E00E94C8210895E2
:10439000EF92FF920F931F93062F0E9483217B01C0
:1043A000182FC7010E94D520D701A115B10569F0CA
:1043B0000170003019F41095812301C0812B8C937A
:1043C0001F910F91FF90EF9008950E94E424612DBA
:1043D0000E94C82108959091C00090729030D9F346
:1043E0008093C6000895CF92DF92EF92FF920F93D1
:1043F0001F93A0E0B0E0FD016D0111E061157105B2
:1044000076018E059F0509F0112D11701030C1F451
:104410008B01017010701195019511097801E2224C
:10442000F32204231523EE0DFF1DA01FB11F220F41
:10443000331F441F551F9695879577956795DDCF58
:10444000BF01CD011F910F91FF90EF90DF90CF90B2
:1044500008956F927F928F929F92AF92BF92CF9268
:10446000DF92EF92FF920F931F938A0179016C0103
:104470005B010E9462004B013C019701A8010E9470
:10448000F321A61AB70AC80AD90A9401A301B501F3
:10449000C6011F910F91FF90EF90DF90CF90BF90DA
:1044A000AF909F908F907F906F9008952F923F9242
:1044B0004F925F926F927F928F929F92AF92BF9234
:1044C000CF92DF92EF92FF920F931F93CF93DF93E0
:1044D000CDB7DEB724970FB6F894DEBF0FBECDBFC1
:1044E0008115910509F4FEC1E091D504F091D6043F
:1044F0002091D7043091D8044091D9045091DA0426
:1045000000E010E06091DB047091DC04E80FF91F1B
:10451000201F311F401F511F601F711F5093DA046D
:104520004093D9047093DC046093DB04F093D604C9
:10453000E093D5043093D8042093D704E091E504A8
:10454000F091E6042091E7043091E8044091E904F9
:104550005091EA046091EB047091EC04EF5FFF4F1F
:104560002F4F3F4F4F4F5F4F6F4F7F4F5093EA0496
:104570004093E9047093EC046093EB04F093E60439
:10458000E093E5043093E8042093E7049A83898359
:10459000FC013796F695E795F695E795F695E7953C
:1045A0008091DD049091DE042091DF043091E004DD
:1045B0004091E1045091E2046091E3047091E404BD
:1045C000FC83EB838E0F9F1F201F311F401F511F45
:1045D000601F711F5093E2044093E1047093E40460
:1045E0006093E3049093DE048093DD043093E00451
:1045F0002093DF042091D1043091D204F901780195
:10460000812DE217F3075F0109F003C1803009F43F
:1046100042C0813009F083C10E9432028BE796E2EA
:104620008115910509F479C180E093E067E075E0B8
:104630000E947B26F5018091FE04803009F42DC094
:104640001092FE044091D3045091D404C801841701
:10465000950788F79C0136952795369527956C0127
:10466000A091CF04B091D004A20FB31F2C91382F8A
:10467000330F36703A9512F02695FCCF2370233015
:1046800041F40E942625C601F5014091D3045091C2
:10469000D4040196DCCF81E0BCC0512D98011901F2
:1046A000290139016901C9012091D3043091D40451
:1046B0008217930708F083C09C013695279536959D
:1046C0002795BC01A091CF04B091D004A20FB31FD5
:1046D0009C914B01262F220F2670392F422F4A958D
:1046E00012F03695FCCF3370303009F427C03330E8
:1046F000E1F03230C40109F023C05170503009F4A8
:104700005BC00E94EA24C401F5010F5F1F4F9101B5
:104710002F4F3F4F190192012F4F3F4F2901930116
:104720002F4F3F4F390151E048C082E02A9512F0E7
:10473000880FFCCF809598239C93512DC4013DC0D8
:104740000E94EA24C401E091ED04F091EE0420916E
:10475000EF043091F0044091F1045091F204609123
:10476000F3047091F404EF5FFF4F2F4F3F4F4F4F13
:104770005F4F6F4F7F4F5093F2044093F10470935B
:10478000F4046093F304F093EE04E093ED043093AB
:10479000F0042093EF040F5F1F4F91012F4F3F4F05
:1047A000190192012F4F3F4F290193012F4F3F4F86
:1047B000390151E0F50101C0512D019675CF80916D
:1047C000F5049091F6042091F7043091F80440919B
:1047D000F9045091FA046091FB047091FC04800F7D
:1047E000911F221D331D441D551D661D771D5093BD
:1047F000FA044093F9047093FC046093FB049093D3
:10480000F6048093F5043093F8042093F70482E0D3
:1048100086012091D3043091D404E217F307D80124
:10482000A80109F424C0DF01B695A795B695A79510
:104830002091CF043091D004A20FB31F9C914E2F32
:10484000440F46704A9512F09695FCCF93709030C5
:1048500021F03196DF01A8010AC0DF011196F701AE
:1048600031964B815C81E417F50741F0AF0120914F
:10487000D1043091D204FD017A01C3CEB093D204A9
:10488000A093D1048B819C81A81BB90B41E08D01C1
:10489000CD01582F550F56705A9512F0440FFCCF8A
:1048A000DC01B695A795B695A795A20FB31F5C91AD
:1048B000452B4C93FC01319642E0B50186179707D2
:1048C000CF0139F7000F111F000F111F000F111F2B
:1048D000095F1A4FC801612D49815A810E946A02FD
:1048E000C80102C08DEF94E024960FB6F894DEBFA5
:1048F0000FBECDBFDF91CF911F910F91FF90EF9031
:10490000DF90CF90BF90AF909F908F907F906F90EF
:104910005F904F903F902F9008950E94E4248CEE7A
:1049200093E06DE070E00E949524EF92FF920F9368
:104930001F938B017C0189EF93E066E170E00E9498
:10494000A924C701B8010E94A9240E94DD240E9465
:10495000E2268F929F92AF92BF92CF92DF92EF9218
:10496000FF920F931F936B017C0180E090E08C011C
:104970005C01AC0181E00C151D0595014207530750
:1049800008F4812D8170803069F4D701A00FB11F28
:104990008C914A010E94EB21A4010F5F1F4F4F4FE2
:1049A0005F4FE8CF1F910F91FF90EF90DF90CF9076
:1049B000BF90AF909F908F9008958DE00E94EB2163
:1049C0008AE00E94EB2108958FE094E067E170E0B7
:1049D0000E9495249C013695279536952795A091A0
:1049E000CF04B091D004A20FB31F9C91880F8670A2
:1049F00023E08A9512F0220FFCCF209592239C93FE
:104A000008952091CF043091D0044FEF5FEFDC0187
:104A1000B695A795B695A795A20FB31F6C916A3A64
:104A200031F4BC01609570956C6F7F6F0BC0782F6F
:104A3000770F76707A9512F06695FCCF63706230CE
:104A4000BA0119F4860F971FE2CF08952F923F9273
:104A50004F925F926F927F928F929F92AF92BF928E
:104A6000CF92DF92EF92FF920F931F93CF93DF933A
:104A7000CDB7DEB7A0970FB6F894DEBF0FBECDBF9F
:104A80008C01CE0101966C0102964EE150E0612D41
:104A90000E946A02D801BA83A9839A2F990F96704F
:104AA00083E09A9512F0880FFCCFB695A795B6953E
:104AB000A795E090CF04F090D004AE0DBF1D9C915F
:104AC000982B9C9380E090E021E030E0290147E0C2
:104AD00055E05C011C01C20118161906C5019101BF
:104AE0008207930781E00CF4812D8170803009F0FA
:104AF000E1C0920121503040B1016040704081E03E
:104B000020312901310595011B016207730708F463
:104B1000812D8170803009F0E6C0C201880F991F95
:104B20009601820F931FFC01A081B1818A2F880F0B
:104B30008670BD01B695A795B695A795AE0DBF1D1C
:104B40009C918A9512F09695FCCF92609370933069
:104B50009B01C90111F4C90101968C01000F111FBD
:104B6000000F111F000F111F095F1A4F0E151F05AF
:104B700098F4DC01B695A795B695A795AE0DBF1D27
:104B80002C91382F330F36703A9512F02695FCCFC2
:104B900023700196223009F3FB01EE0FFF1FEE0F89
:104BA000FF1FEE0FFF1FE95FFA4FE017F10709F44F
:104BB00092CF3F01808191818417950708F477C0D7
:104BC0008E159F0508F073C0841B950BDC01B29510
:104BD000A295AF70AB27BF70AB27B695A795AE0D6A
:104BE000BF1D2C9196958795969587959695879557
:104BF000382F330F36703A9512F02695FCCF23707C
:104C0000203009F454C04A010E940125DC01B69508
:104C1000A795B695A795AE0DBF1D2C91382F330FD4
:104C20003670422F532F5A9512F04695FCCF4370A1
:104C3000433009F43BC043E03A9512F0440FFCCFF7
:104C4000422B4C9321E0A20140315105A501B10155
:104C50006407750709F4212D2170203041F481E0AB
:104C60008093FE0480E190E02C01C5011EC021E08C
:104C7000A20140315105A501B1016407750708F48F
:104C8000212D2170203009F02EC0B2019B01220F8E
:104C9000331FA601240F351FF901918380836F5FB5
:104CA0007F4F2B01C1018F4F9F4F1C01A401F301C6
:104CB00031967BCFA0960FB6F894DEBF0FBECDBF66
:104CC000DF91CF911F910F91FF90EF90DF90CF90E8
:104CD000BF90AF909F908F907F906F905F904F901C
:104CE0003F902F9008950E94752686E294E062E13D
:104CF00070E00E949524AF92BF92CF92DF92EF9224
:104D0000FF920F931F93FB01DC0131977F0107E0B6
:104D100015E0C701A817B90708F04BC0FD01808155
:104D200091818017910708F442C04091CF045091BF
:104D3000D0048417950708F03AC0801B910B6D01D1
:104D4000DC01B295A295AF70AB27BF70AB27B695CB
:104D5000A795A40FB51F2C91D6019695879596958A
:104D6000879596958795382F330F36703A9512F0C0
:104D70002695FCCF23702030D1F05A010E940125E6
:104D8000D6019C013695279536952795F501E20FBA
:104D9000F31F2081382F330F36703A9512F0269585
:104DA000FCCF2370233019F00E942625D6011196DE
:104DB000B0CF1F910F91FF90EF90DF90CF90BF90F9
:104DC000AF900895F8948895FECF0F931F9307E056
:104DD00015E080E299E0801B910B61E270E00E9497
:104DE0004C00AB0180E099E0841B950B9093D004BC
:104DF0008093CF049C01201B310B36952795369567
:104E00002795369527953093D4042093D304612DAC
:104E10000E946A021F910F91089560E073E00E9462
:104E20007B26089588E394E06EE070E00E9495246C
:104E3000ADEAB4E087E095E0A817B90711F01D923C
:104E4000FBCF08958091C00082608093C0001092D3
:104E5000C5008FEC8093C40088E98093C10086E090
:104E60008093C20080E090E0909306058093050552
:104E700090930405809303059093020580930105A8
:104E8000909300058093FF0480916E00887F80934B
:104E90006E0016BC8FEF87BD83E084BD81E085BDC9
:104EA00080916E00816080936E008FB7F89420919E
:104EB00005053091060520910305309104052091E8
:104EC0000105309102052091FF04309100058FBF4C
:104ED000789408950E94E5260E94E62ECF92DF92F4
:104EE000EF92FF920F931F93CFB6F894E0910505D0
:104EF000F0910605A0910305B0910405009101050C
:104F000010910205E090FF04F0900005CFBEE20E84
:104F1000F31E041F151FA61FB71FE81FF91F889552
:104F20008FB7F8942091050530910605409103054F
:104F3000509104056091010570910205C090FF0435
:104F4000D09000058FBF81E0CE14DF0460077107A9
:104F50004A075B072E073F070CF0812D81708030D8
:104F600009F0DDCF1F910F91FF90EF90DF90CF9070
:104F700008956F927F928F929F92AF92BF92CF923D
:104F8000DF92EF92FF920F931F9389017A016B01D9
:104F90003C01C114D104B1F001151105B1F0580163
:104FA000AC0CBD1CC5010E9456224C01B301A601E8
:104FB0000E947302C80CD91CC601B701A8010E9447
:104FC000730205C04701580102C043015601B401F4
:104FD000C5011F910F91FF90EF90DF90CF90BF9090
:104FE000AF909F908F907F906F9008952F923F92F7
:104FF0004F925F926F927F928F929F92AF92BF92E9
:10500000CF92DF92EF92FF920F931F93CF93DF9394
:10501000CDB7DEB72E970FB6F894DEBF0FBECDBF6B
:105020004C018FB7F89440910505509106056091A9
:105030000305709104052090010530900205209130
:10504000FF04309100058FBF00E010E081E02115E2
:10505000310520063106600771075E874D874007DE
:10506000510709F4812D8170E0E0FAECAAE9BBE375
:105070003901A1017A876987582E8D859E855F0148
:105080006D0178010E948102E52DE03009F486C0AF
:1050900098868F82E0E0F6E37C866B863A012901F0
:1050A0009E838D83A5E6B4EC4B015F016D01780111
:1050B0000E94200B59018B859C85A80EB91E3C824D
:1050C0002B82421D531D852F880FEE085A8249827C
:1050D000F201E058F8482301D301AF41B046140172
:1050E00094012F4F3F4F8D819E814C018F4F9F4FD9
:1050F00062E070E06B0161E0E115F105A007B10726
:105100002C053D058007910708F0612DFE2CCE2C63
:10511000DE2C6170603009F44CC08B859C858F5FFC
:105120009F4F4C018B819C818F4F9F4F3C01898504
:105130009A858F4F9F4F2C018D859E858F4F9F4F56
:105140001C01B695A795F7956E2F6795B695A7950F
:10515000F79567957F2F2695912D9795269597958D
:10516000812D312D212D262B372BE22AF32A8A2B54
:105170009B2B8C299D299068E695312D3795E695D6
:105180003795212D112D012D422B532B0A291B2937
:105190006C01B4019301C201D10119C08EE090E00D
:1051A00021E937E760E077EFA80178016801D801CD
:1051B00010C069817A816050794092012E4638484A
:1051C000C101814F9F4FD401AF4FBF4F85018F80E9
:1051D0009884F40171876087118300833387228765
:1051E0005383428395878487F582E482B787A687B5
:1051F000D782C6822E960FB6F894DEBF0FBECDBF03
:10520000DF91CF911F910F91FF90EF90DF90CF90A2
:10521000BF90AF909F908F907F906F905F904F90D6
:105220003F902F9008952F923F924F925F926F92EE
:105230007F928F929F92AF92BF92CF92DF92EF9226
:10524000FF920F931F93CF93DF93CDB7DEB7A6974F
:105250000FB6F894DEBF0FBECDBFFCA2EBA2D8A262
:10526000CF8EBEA2ADA29AA289A27A8B698B5E8BE9
:105270004D8B29011C8B0B8B9E838D836BAC7CAC7F
:1052800093012DAC3EAC0FB621966EAD7FAD21974C
:105290000FBE0FB623968EAD9FAD23970FBE40E095
:1052A0005AEC5A01AAE9BBE300E010E03A832983F3
:1052B000A101F92FFC83EB836D014D0178010E9460
:1052C0008102388F2F8B5E8F4D8F7C8F6B8F9A8FE3
:1052D000898FE0E0FAEC5F0164010E94200B8301FA
:1052E000021B130B240A350A520192013F734B89AA
:1052F0005C89040F151F221D331D8AECE1E00115A6
:105300001807280539050CF0E12DE1708F8D98A163
:10531000582F412D8DA19EA1A92F982F2A2E312CD7
:10532000B12DA12DE9A0FAA08F2DC988DA88E0302F
:1053300009F021C06F89788D6F5F7F4F788F6F8BF9
:10534000ED8DFE8DEF4FFF4FFE8FED8FEB8DFC8DC2
:10535000EF4FFF4FFC8FEB8FE98DFA8DEF4FFF4F33
:10536000FA8FE98F00501A4C1C870B872A493B4360
:1053700000E010E030C01C870B87E1E07901232FAB
:1053800022230AF4E12DE170E03000E010E011F09A
:10539000970121C02F89388D21503040388F2F8BB5
:1053A0002D8D3E8D204030403E8F2D8F2B8D3C8D9E
:1053B000204030403C8F2B8F298D3A8D204030404B
:1053C0003A8F298F2B853C85205036433C872B878D
:1053D00097012546344CEDA1FEA1242A352A8A2BBB
:1053E0009B2B4BA15CA1452EAF8DB8A14B2FB501D6
:1053F0006070707C91E0DD200AF4912D5C8B4B8B0A
:10540000AB01422B532B91709030388B2F8791F04A
:105410002D893E89952F522F412DE92EF12CE42A1A
:10542000F52AFA86E98649895A89452F232F3E872E
:105430002D87E5C0642D78876F834070507C550FB1
:10544000412D441F550F441F512DA12DB12DE98928
:10545000FA89FF77ED88FE88EE0CFF1CEE1F7F2F88
:10546000771FEE0CFF1CEE1F771F6E2FE42AF52A24
:105470006A2B7B2BFF0FA12DAA1FFF0FAA1FB12D97
:10548000812C912C67014F89588DE40EF51EAB01DC
:10549000AD8CBE8C4A1D5B1D5D016B8C7C8CA61C8B
:1054A000B71C698C7A8C861C971CE2E0F0E091E0D6
:1054B000E114F10440075107AE06BF0680069106CD
:1054C00008F4912D9170903009F06EC0952F96954B
:1054D000E42FE795BF2DB795AE2DA7959695E79547
:1054E000B795A7959A2D9695E12DE7959695E79511
:1054F000D12CC12CCA2ADB2AEC2DFE8BED8BFC2D86
:10550000E12DE694B12DB795E694B795A12D2070C5
:105510003F732A2B3B2B232F312D2E2B3F2B3A87EA
:105520002987352F3695242F279536952795982D41
:105530009695EB2DE795FA2DF795B12DB7959695A4
:10554000E795F795B795A12DA22BB32BBA8BA98B15
:1055500056954795F79456954795F7942F2D342FE8
:105560009B2D96954A2D4795E12DE7959695479564
:10557000E795F12DE12DE22BF32BFE87ED87252F0B
:10558000312D96948794B794A794412D479596947E
:105590008794B794A79447955A2D422B532B406874
:1055A000AF8DB8A1622D01C1A601405850486E448C
:1055B0007842A24FBF4F9A2F812D272E312C282AB7
:1055C000392A312D212D852F962F822B932B2F8534
:1055D0003889232F3A872987912D212D3CA32BA38E
:1055E000212D3C8B2B8BE62F492E5AA349A3412D0D
:1055F000C12C212D3E872D87212D3E8B2D8BDA8AC4
:10560000C98A6E2ECA2E91E02F89388D1216130684
:105610002D8D3E8D020713072B8D3C8D020713073E
:10562000298D3A8D0207130751E00CF4512D51706A
:10563000282F3327F02EE32E322F212DA22CBB242E
:105640009A2C812CB12DA12DA22BB32B29A13AA1EB
:10565000E22FFF27EA2BFB2BA62DBB27A829B92970
:10566000AE29BF292B893C893327E32E322F212DE8
:10567000742D612D912C812C822A932A2C2D332775
:1056800028293929AB2CB02E812E912CA22AB32A9D
:10569000212F312D612C712C2A293B29CBA0DCA094
:1056A000AC2CBB24A62AB72AAE28BF28A828B92824
:1056B000A628B7284F016F89788D860E971E6D0139
:1056C0006D8D7E8DC61ED71EB901EB8CFC8C6E1DB8
:1056D0007F1D7501698C7A8CE61CF71C34017AA257
:1056E00069A2E815F905AC05BD05DB012A073B07F2
:1056F00097013CA32BA3AE04BF040CF0912D917035
:105700005917D1F08D2D912D7A2F612D682B792B82
:1057100089A19AA1292F8C2D9EA38DA33C2D912D7B
:10572000812D822B932B2BA13CA1232F38872F83F4
:105730002B2F3C8B2B8B39C081E04F88588C141455
:1057400015042D8D3E8D020713072B8D3C8D02070E
:105750001307298D3A8D020713070CF0812D8170F4
:10576000803089F08FEF9CA38BA38FE798878F837E
:105770008FEF9C8B8B8BAFEF6FEF9EA38DA32FEFE3
:105780003AA329A312C081E09AA389A380E898874D
:105790008F83812D9CA38BA3812D9C8B8B8BA12D23
:1057A000612D812D9EA38DA3812D342E212C298541
:1057B0003A85E22FFF2791E0232D22230AF4912D31
:1057C000AF2EB02E812E912C7E2E612C512C412C8F
:1057D000917090302F85388989F0BE8EAD8EE9A109
:1057E000FAA1B8A3AF8F2BA03CA0EDA1FEA1EE2E95
:1057F000AB88BC88EF81F8857E2F46C19C8E8B8E4E
:105800009927302F292F982F812DEA2FA62FBB27DC
:10581000FA2EE12C612D512D582B692B89A19AA1CB
:10582000882E9924852A962A8DA19EA1582F662715
:105830005E296F29522B632B8B899C899927292FED
:10584000982F812DEF80F884DE2CC12CF12CE12CD7
:10585000E82AF92A8E2F99278E299F29AB2FB02F5E
:10586000F8010F2F112DA82BB92B8F2F912DE12D82
:10587000F12D8A2B9B2BABA1BCA1EA2EFF24EC2897
:10588000FD28E22AF32AE02AF12AEE2AFF2A2BAD8C
:105890003CAD9CA28BA2280D391DE52FF62FADAD96
:1058A000BEADEA1FFB1FFEA3EDA3FC010FB62196C0
:1058B000AEADBFAD21970FBEEA1FFB1FD7010FB6DC
:1058C00023960EAD1FAD23970FBEA01FB11F71E031
:1058D0000B811C8111230AF4712D7170703000E06E
:1058E00010E08B8C9C8C99F471E0CBA0DCA0C216EC
:1058F000D306CDA0DEA05C056D058E079F07EA06E6
:10590000FB060CF4712D7170703009F432C071E037
:10591000C980DA801C141D04CDACDEAC0C051D055D
:105920000FB62196CEACDFAC21970FBE0C051D053E
:105930000FB62396CEACDFAC23970FBE0C051D052A
:105940000CF4712D7170703009F084C071E0CBA03F
:10595000DCA02C153D05CDA0DEA0C506D606E807C7
:10596000F907AE05BF050CF0712D7170703009F4A8
:1059700071C08D859E85282F3327522F412D89890F
:105980009A8999276D897E89E62FFF27702F632FCB
:10599000312D212D82299329E42BF52B862B972B52
:1059A000E22BF32B88299929EA29FB29770C212D51
:1059B000221F770C221F312D412D512DEE0FFF1F7D
:1059C000881FB92FBB1FEE0FFF1F881FBB1FA82FFB
:1059D000E22BF32BA42BB52B990F812D881F990F48
:1059E000881F912D81709070E058F048AE44B84205
:1059F000824F9F4F282F38A32F8F982F812D6B2FE9
:105A0000712D682B792B312D212DFAA3E9A38F2F2E
:105A1000EA2E9A2F822B932B29853A852F733327D1
:105A2000432F502F5E8F4D8F812E912C722E612C23
:105A3000512C412C712D212CA12C412D212D3A8B43
:105A4000298B212D3E872D87212D3E8B2D8B2F8558
:105A500038891AC0BE8EAD8E5DA16EA1862F912DA4
:105A60007E2F612D682B792B3AA329A3232FE52EB6
:105A7000352F912D812D822B932B7B2FAF2E2F85B0
:105A80003889F8A3EF8F2A2E307026293729ED8127
:105A9000FE8133832283AB85BC859D012070242940
:105AA0003529B070A22BB32BB183A0839927302F57
:105AB000292FB82FA12D862F9927682F512D6801E6
:105AC000112D012DFF24E52AF62AE22AF32AF38676
:105AD000E2860A2B1B2B29A13AA13327202B312B3D
